:020000022000DC
:106000000000042079630200616302006363020000
:10601000656302006763020069630200000000001C
:106020000000000000000000000000006B630200A0
:106030006D630200000000006F63020071630200E4
:106040001196020073630200D19A0200736302008A
:1060500073630200736302002D99020073630200F0
:1060600073630200736302007363020073630200D0
:1060700073630200F19B020073630200736302000A
:1060800073630200517302007363020073630200C2
:10609000ED73020073630200FDD10200411505009B
:1060A0007363020073630200F19D020073630200D8
:1060B0007363020073630200000000000000000030
:1060C0007363020073630200736302007363020070
:1060D000D906050073630200736302007363020054
:1060E0007363020073630200736302000000000028
:1060F00000000000736302000000000073630200F0
:10610000000000000000000000000000000000008F
:10611000000000000000000000000000000000007F
:10612000000000000000000000000000000000006F
:10613000000000000000000000000000000000005F
:10614000000000000000000000000000000000004F
:10615000000000000000000000000000000000003F
:10616000000000000000000000000000000000002F
:10617000000000000000000000000000000000001F
:10618000000000000000000000000000000000000F
:1061900000000000000000000000000000000000FF
:1061A00000000000000000000000000000000000EF
:1061B00000000000000000000000000000000000DF
:1061C00000000000000000000000000000000000CF
:1061D00000000000000000000000000000000000BF
:1061E00000000000000000000000000000000000AF
:1061F000000000000000000000000000000000009F
:10620000364937480A1A02D0072291438D4635494C
:1062100035480A1A06D00722914381F309880222E1
:1062200082F3148831483249324A00F045F8324846
:106230003249334A00F040F832483349334A00F0DB
:106240003BF833483349344A00F036F83348344990
:10625000344A00F031F834483449354A00F02CF81B
:1062600034483549354A00F027F835483549002289
:1062700000F02DF834483549002200F028F8344861
:106280003449091A082903DB002202600430016046
:10629000314A90471F482049884205D0026804309F
:1062A00003B4904703BCF7E700208646EC46002085
:1062B00000212A4A9047FEE7884207D0521A05D0AB
:1062C000037801300B700131013AF9D170478842EF
:1062D00002D002700130FAE770470000000004208D
:1062E00000E003200000042000000420944C05007E
:1062F0004C2B0020802D0020D8630200D8630200C0
:1063000030170500944C05004C2B00204C2B00202E
:1063100044190500441905004419050044190500F5
:1063200044190500441905004419050044190500E5
:10633000924C0500C84E0500802D0020802D0020C5
:10634000802D002092660020946600209866002030
:106350009866002098660020A1630200C5B802007C
:10636000FEE7FEE7FEE7FEE7FEE7FEE7FEE7FEE705
:10637000FEE7FEE7704700BF1048804710484FF027
:106380000701884385460F4880470F48016841F45C
:1063900070010160BFF34F8FBFF36F8FFFF730BF06
:1063A0000A480B490B4A884207D0521A05D0037895
:1063B00001300B700131013AF9D170477563020069
:1063C0000000042035CC020088ED00E090180500A4
:0863D000982A00204C2B00204C
:1063D800004870478C660020F0B595B01C461646FC
:1063E80008460D4602F0EEF81A9B0D93CDE90864B5
:1063F80000242346082205A928460A948DF82C4033
:106408000C9402F0FDF8079B0293BDF81830ADF824
:106418000C30BDF81A30ADF80E309DF814308DF8F8
:10642800114003F00302012A1DD1BDF81440059E56
:10643800C3F3C203C4F383148DF81030A2000823F9
:106448000EA9284602F0DCF8C6F3952608AB00939F
:10645800224602AB0EA9304600F0FAFC284602F0AC
:10646800B5F815B0F0BD022AF8D1BDF81640C3F34F
:10647800C203A4098DF810300827082C264628BF27
:1064880008263B4632460EA9284602F0B9F8A41B56
:1064980008AB02AA31460EA8374400F03DFD002C97
:1064A800EBD1DBE7014B01221A707047C12D0020A8
:1064B8007047000070B50F4D06460FCD88B06C468A
:1064C8000FC495E80F00002E84E80F004FF0060374
:1064D8000093094A09484FF0805308BF00226946D3
:1064E800069302F0EDFF08B100F0ACFE044B1E70FD
:1064F80008B070BD44190500AD6402004C2B0020A3
:10650800802D002007B5044B0093044A4023FFF771
:1065180063FF03B05DF804FB29650200812D0020AC
:1065280038B50D4B0D4D002018700D4804782D5DC1
:10653800D2B21C4665B1043004F0BEF808B100F0D0
:1065480081FE084B1A7812B12378002BFBD038BD96
:106558000C3003F08FFEF1E7C12D00200C3700202E
:106568004C2B0020802D002008B50848084A0378E5
:10657800D35C3BB1043004F049F80020BDE8084082
:10658800FFF798BF0C3003F01FFEF6E74C2B0020F6
:106598000C3700200120FFF78DBF000008B5FFF77A
:1065A800F9FF0421034800F0B9FB034B01225A719B
:1065B80008BD00BF80180500602B0020037813F089
:1065C800040216D003F00303012B03D0022B09D0D9
:1065D800012070470A6800880232C0F38310024421
:1065E8000A60F5E70B684288023303EB92130B60ED
:1065F800EEE71046704700002DE9F04F89B00546D8
:10660800861C08A8484C019200230F4600F8113D4B
:1066180001F0D4F823683B60D4E9012313442268CD
:1066280001339B1A04F21C4704F5836A04F21448E8
:10663800B3421AD3019A0023002A6DD0012262F3D3
:10664800010343F0040365F389132168A2689DF8E8
:106658000F000A4003320E4444F82230266001F04D
:10666800D1F8012009B0BDE8F08F0121384601F0CA
:10667800DEF9504601F0F4F9404601F0F1F90DF168
:1066880020096068D4F808B049F8100D00EA0B003A
:10669800033004EB80004946FFF790FF049BB0B934
:1066A8000BEA030204EB8202D16805919A1C0133BC
:1066B80003EA0B0B04EB8B0C01F00303012B049290
:1066C800DCF80CB020D0022B04D083460BE00BEA98
:1066D8000300DDE7BDF816309B0903334FEA1B4B77
:1066E80002EB93030493404601F0BDF908B1049B03
:1066F80063605946384601F09AF9D4E901231344F6
:10670800226801339B1A93E7BDF81430C3F383134F
:106718004FEA1B4B1344E5E7022262F3010343F0FF
:10672800040365F39F5390E7942E002030B50A4B7D
:106738000A4A0B49D21AD20800239A4201D10520ED
:1067480006E031F823500468A54202D10360002016
:1067580030BD0133F1E700BFE017050080180500E0
:10676800AC2A00202DE9F84F224B2348FF229A60DB
:106778000022C3F81824C3E90022C3F8142483F8BC
:10678800202401F0D8FE804688B91C481C4E1D4DB7
:10679800DFF874A002F024F8AD1BED084446AC42C3
:1067A80008D10023184919481A469C421BD1404673
:1067B800BDE8F88F4FF000094F4606EBC40BBC420A
:1067C8000AD0142256F83710DBF8000007F0BAF8A0
:1067D8000028C8BF09F101090137BD42EFD12AF8E5
:1067E80024900134DBE701EB830540F823206A801D
:1067F8000133DAE7942E0020C81705008419050034
:10680800E017050080180500AC2A0020FC2A0020AB
:1068180007B5019031B9019A064B53F8320003B01D
:106828005DF804FB01A8FFF781FF0028F3D00020E2
:10683800F5E700BFE0170500094B013903EBC0007D
:10684800032909D8DFE801F00A020406042070478A
:1068580000797047407970470020704702207047E0
:10686800E017050030B5124C00EB400054F82150F9
:106878008240072303FA00F06A4002400D4B6A4049
:10688800C2F3821044F8212003EB8101C2F3C20352
:10689800834238BF0346C2F34220834202F0070214
:1068A80038BF03469A4238BF1A464A8030BD00BFF7
:1068B800FC2A0020AC2A0020034BD3E90030C31A7D
:1068C80058425841704700BF942E00202DE9F04FE0
:1068D80087B0FFF7F1FF0646002840F01B818E4D78
:1068E800C5F81804BFF34F8F6868AC6806AF47F85F
:1068F800100D2040033005EB80003946FFF75EFE9F
:10690800029B18B1D5F81824002A66D004EA0302BD
:10691800991C013305EB8202234005EB8303D268FF
:10692800DB68049302F00303022B0392029169D1FE
:10693800BDF80E3079489DF80C604FEA931ABAF109
:10694800500FD14628BF4FF0500969F38F1309F152
:106958000801ADF80E3001F006FEC6F3C206804607
:10696800002800F0BE8001F02DFE03A900230822B4
:10697800404601F03AFE029924EA01070137BF00B8
:10698800B94538D95FFA89F997B3FFB2A9EB070976
:10699800214003315FFA89FBB946614F05EB81015C
:1069A80008234A46404601F020FE37B109F10803A2
:1069B8005A463946404601F018FE029B0AF1030A7E
:1069C80003EB9A030293D5F81834002B50D1D5F86D
:1069D8001044DFF8609107276FE02A689A4204D8CC
:1069E8006A60304607B0BDE8F08F04EA030081E72B
:1069F8004B49BB46D4E72140033108234A4605EBFF
:106A08008101D7E7012B6CD1BDF80C604348C6F370
:106A18008311062928BF062161F3891602318900EE
:106A2800ADF80C6001F09FFDC6F3C2068046002851
:106A380057D001F0C7FD0023082203A9404601F002
:106A4800D4FD0027BDF80C20C2F38312BB1C97426B
:106A58004FEA8303B7D202994A1C214003310292BC
:106A680005EB81010422404601F0BFFD0137E9E74B
:106A7800404601F0ABFDFFF71FFF80F00100C6B2F2
:106A8800AFE7E3685A79B2B11B79BDF8101003EB90
:106A9800430259F8211007FA02F3052E03EA01030D
:106AA80023FA02F308BF0326B34204D323684146FE
:106AB8001B6820469847E3681C68002CE1D14046D3
:106AC80001F084FD06A800F8114D00F077FED5F816
:106AD80018340BB9029B6B609DF8070000F092FE1A
:106AE800C9E7D5F8104474B90E4B5B88012BC2D99D
:106AF8000D4B0E480E49C01AC008000440F00200B1
:106B080000F072F8B7E7236820469B689847E36867
:106B18001C68E8E7002664E7942E0020C8170500E3
:106B2800A02E0020C82A0020E0170500181805002C
:106B380090190500FC2A00202DE9F74F284C8046C3
:106B48000F46924601A9012218469B46D4F80890A0
:106B5800FFF752FD88B3019D0026A91C5E4506EB90
:106B6800010234D100211F4800F02BFF80F31000F0
:106B78006A1C02EA090204EB8202000405EA09031E
:106B8800033340EA1840D06014F8232068F3C502A4
:106B980004F8232034F8232066F3891224F82320EC
:106BA80054F82320012167F39F2244F8232061F33E
:106BB80001026FF3820204F8232094F820341BB1F9
:106BC800FFF784FE0028FBD103B0BDE8F08F09EA87
:106BD800020204EB82025AF82630D3600136BDE780
:106BE800942E0020B032002000231A46FFF7A4BFDD
:106BF80013B502AC012344F8042D2246FFF79CFF8D
:106C080002B010BD07B5CDE9002302236A46FFF79D
:106C180093FF03B05DF804FB1FB5CDE90123069B84
:106C2800039301AA0323FFF787FF05B05DF804FB70
:106C38001FB5CDE90023069B0293079B03936A4681
:106C48000423FFF779FF05B05DF804FB2DE9F3474E
:106C58008046304CD01C8A46174601A9002280087D
:106C6800A568FFF7C9FC002840D0DDF80490A668A5
:106C780009F10200019001362840361AB6000330A7
:106C8800B74204EB80003BD83A46514606F0CFFEA7
:106C98000021214800F095FE80F3100009F101035E
:106CA8002B4004EB83034FEA184242EA0040D860C5
:106CB80005EA0903033304EB830214F8231068F38D
:106CC800C50104F8231034F823106FF38F1124F84A
:106CD8002310518867F38F11518014F82320022163
:106CE80061F301026FF3820204F8232094F8203440
:106CF8001BB1FFF7EBFD0028FBD102B0BDE8F08720
:106D08003246514606F093FEBA1B0AEB060104F11F
:106D18000C00BBE7942E0020B03200201C4A2DE95D
:106D2800F843D2F81034064688460024194681B93B
:106D3800F1680C719BB9C2F810640B60154F164DC1
:106D4800ED1BED084FF00009A9450DD12046BDE81F
:106D5800F883C9680879A04214D00968E7E7DB68B6
:106D68001A680A601E60E9E707EBC9034946DA7941
:106D7800F368424528BF42461879FFF773FD09F1C9
:106D88000109E1E701340A2CD0D14FF0FF34DDE7E7
:106D9800942E0020E017050080180500037A052BC3
:106DA80010B50C460FD0437A23B1084A084920464B
:106DB80000F0BAFE0749204600F0B6FE2046BDE8BE
:106DC800104000F0A6BE002AF8D0F3E7EB19050042
:106DD800F0190500101A0500C38873B504460D465E
:106DE80033B1144A00921449144A284600F09CFE14
:106DF800217A05291CD0637A4BB1A088FFF71CFDC6
:106E08000F4B104953F82020284600F08DFE227AB7
:106E18000D4BA08853F822600021FFF7F9FC0B49BD
:106E280003463246284602B0BDE8704000F07CBEFA
:106E380002B070BDEB190500FB190500F319050038
:106E4800B8190500F0190500201A0500131A0500E5
:106E58002DE9F04385B01F460C9D002306460C46DD
:106E6800904695F80C902B7329463846FFF7B4FFE7
:106E7800B8F1060F09D8DFE808F00412181F283304
:106E880040003146284600F04FFE00222946384689
:106E9800FFF784FF85F80C9005B0BDE8F083226801
:106EA8003146284600F040FEEFE7D4E9002331469A
:106EB800284600F039FEE8E7A36800933146D4E994
:106EC8000023284600F030FEDFE7E3680193A3685B
:106ED80000933146D4E90023284600F025FED4E784
:106EE80023690293E3680193A36800933146D4E9C8
:106EF8000023284600F018FEC7E763690393236957
:106F08000293E3680193A36800933146D4E9002310
:106F1800284600F009FEB8E708292DE9F84F804611
:106F28000E4617461C4636D8002593F80C901D735C
:106F380019461046FFF750FFDFF87CA0DFF87CB059
:106F4800AE422AD918F805205946204600F0ECFD33
:106F58000135082DF4D11649DFF864B0204600F059
:106F6800E3FD0025AE421DD918F805A0504606F0ED
:106F780001FC002814BF52462E225946204600F034
:106F8800D3FD0135082DEDD1012221463846FFF702
:106F980005FF84F80C90BDE8F88F5146204600F0B4
:106FA800C3FDD5E70349204600F0BEFDE9E700BF71
:106FB800E6190500E4190500E2190500DC190500C9
:106FC800E81905002DE9F04F3B4F89B000263B4BEF
:106FD8001B78F5B2AB4202D809B0BDE8F08F384B48
:106FE800196811F835000124A0F12002C0F120032E
:106FF80004FA02F924FA03F349EA0309D7E900235A
:1070080004FA00F8CDE9042302EA080203EA0903B6
:10701800134301EBC50B4CD0DDE9042322EA080237
:1070280023EA0903C7E90023079102F06BFC0799DB
:10703800844611F83500A0F12002C0F1200324FA9B
:1070480003F304FA02F21A4304FA00F300931D4B07
:107058000192DDE90045D3E9002314401D40224692
:107068002B465FFA8CF40025CDE90445049CA0F179
:107078002005AC400394049CC0F1200124FA01F1DE
:10708800039C0C430499039481400291DDE9024575
:10709800AB4208BFA2420CD19BF801104B1E5942CB
:1070A8005941A1EB0C02DBF804305142514103B1C4
:1070B800984701368BE700BF80330020503300200B
:1070C80088330020783300202DE9F84F06462448FD
:1070D80000F064FB002841D10123A6F12001C6F18C
:1070E800200203FA01FB23FA02F203FA06FA1D4B07
:1070F800D3E900014BEA020B00EA0A0801EA0B098E
:1071080058EA09021F4623D1304602F0FBFB164B12
:10711800B8B1D3E9000140EA0A0441EA0B05C3E922
:107128000045D7E900234BEA0305104B0C481968C2
:107138004AEA0204C7E900450022BDE8F84F00F01A
:10714800E9BAD3E9000120EA0A0421EA0B05E6E7D7
:1071580020EA0A0421EA0B05C3E90045BDE8F88FD7
:107168005833002080330020783300205433002027
:10717800042A2DE9F34105460C4616463AD902F091
:10718800E7FAD8B11C4B1D491D601D4BDFF8848000
:107198001C701C4B00221E600023C1E900231A4901
:1071A800C1E90023013CE4B200260327FF2C0CD1DF
:1071B800164A1748002100F09BFA03E002F090FA03
:1071C8000028DFD002B0BDE8F08123B205EBC3028E
:1071D80001A992788DF8052015F833008DF806601E
:1071E80042468DF8047002F0BDFA013CE4B2002872
:1071F800DCD0E7E70720E5E7883300207833002074
:10720800503300205433002080330020CD6F02001B
:10721800881A0500D170020070B5084D084E002488
:107228002B789C4201D3002070BD3368012113F8EC
:10723800340002F01DFB0134F2E700BF5033002098
:10724800883300201FB50021039001AA44F20100F1
:10725800CDE9011124F0ECFA05B05DF804FB00B5A6
:1072680083B002900091019244F2010071466A468F
:1072780024F0DEFA03B000BD094A5378917801334F
:10728800DBB2994208BF0023117899421FBF0370EF
:107298005078182303FB002014BF043000207047E7
:1072A8008C33002073B5054602A8002400F8014D70
:1072B8000E4600F083FA0DF10600FFF7DDFF90B1EE
:1072C80006700A4B9DF8062045605A709DF8070025
:1072D80000F098FA24B9064B4FF48012C3F8002145
:1072E800204602B070BD0424F0E700BF8C330020B4
:1072F80000E100E0024B4FF43C6043F00103184703
:10730800901A050038B50C4B0C4C4FF40032C3F8FA
:10731800802001254FF48033C4F84833C4F808337B
:107328006560FFF7E7FF064BA56000241C60FFF7C8
:10733800E1FF044B1C7038BD00E100E00010014083
:10734800A834002099340020F8B51F4B1F491B684A
:107358000025C1F84051C1F84451C1F84851C1F85D
:107368004C51C1F80051C1F804514BB3D1F8044550
:1073780017490968641A24F07F442F461A68A24204
:1073880009D8A41A15441A7CDE691AB11F74D3E906
:1073980005209047AEB90F4B0F4A197813788B42E6
:1073A80005D10133DBB2022B08BF0023137012781A
:1073B8000A4B43F822500A4B4FF48012C3F80021BD
:1073C800F8BD3346DAE700BFAC34002000100140B6
:1073D800A8340020A4340020A53400209C340020C8
:1073E80000E100E02DE9F74F9E4A9F49137809789C
:1073F8009E4D99423CD00133DBB2022B08BF0023DB
:1074080013709B4912789B4B0F6853F822003B1866
:1074180023F07F4300220B602B68164614469446DF
:1074280013B942B12B6006E0196881420ED902B146
:107438002B60091A19604FF001082B68DFF83CA28D
:1074480000930027BEB9DFF83CB260E0401A0C4454
:10745800D968C3F800C0D3F81CE031B13A1922F05A
:107468007F42C3E90121DE611E4601227346D7E748
:107478000026B046E1E73446F6697D4A636812683B
:10748800DFF804C2A068991A21F07F41614500F233
:10749800A58001442160012222742A680023C4E9DE
:1074A8000133E361002A40F0A2802C60CAE75A1C2D
:1074B8009BF80210D2B291428BF8002004BF002240
:1074C8008BF80020182202FB03B32A6819799C68FC
:1074D800022974D003297ED0012918D1217CB1B9A1
:1074E800DA6862601A69A2605A699B69A361624B93
:1074F800E2601B78002BC0D06160BEE79C4200F0C0
:1075080093809946DB69002BF8D1002323749BF8FC
:1075180000309BF801209A42C9D12B682FB9009AF4
:10752800934202D1B8F1000F43D0002B79D0D3F8A1
:1075380000A0524D4E4BD5F804751C68DFF84C81FD
:107548003E1B98F8003026F07F4603369BB94FF46F
:107558008033C5F84433C5F80433494B4FF400323F
:107568004FF00109C3F880211A60C5F80090FFF7B1
:10757800C1FE88F80090B2452CBF5444A41924F0E9
:107588007F44C5F84045D5F80435DB1B23F07F431D
:10759800E41B033324F07F44A3420AD9D5F8043509
:1075A800C5F84035FFF7A6FE354B4FF40032C3F857
:1075B8000021314B00221A7003B0BDE8F08F13464A
:1075C8009146A0E71174D2690123002AFAD1002B51
:1075D8009DD02A609BE700231946F6E7D31A23F0CB
:1075E8007F43834234BFC31A0023236053E72168D3
:1075F8001368994213D8591A1160E26155E7091ABC
:10760800D8691A4638B1034618688842F7D3401A31
:107618001860184613462160E061DC6112E71346E2
:10762800F2E7FFF76FFEC4E74C450DD1D3692B6035
:1076380053B90F4801920121CAF8081003600E4B94
:107648001970FFF757FE019AE1692368C9F81C1001
:1076580011B1086803440B602B689A4218BF0127D0
:1076680053E700BFA4340020A5340020AC34002028
:10767800A83400209C3400209834002000100140D9
:1076880000E100E08C330020FEFF7F0099340020E9
:1076980008B5FFF737FE104B00200B2218809A70B0
:1076A8000E4B18600E4B18700E4B18700E4B4FF4A3
:1076B8008012C021C3F8802183F814131A6002F1E4
:1076C8008042A2F56F22C2F8080583F81113074B10
:1076D800D2F804251A6008BD8C330020AC34002091
:1076E800A4340020A534002000E100E0A8340020E4
:1076F800074B9B784BB132B128B10368187C20B98D
:1077080059745A617047072070470820704700BFB6
:107718008C3300202DE9F7431D4FBB7805460E46F4
:1077280090469BB390B304292ED9436973B3437C25
:1077380002A80024012B00F8014D0CBF8946A14680
:1077480000F03CF80DF10600FFF796FDD0B10123DB
:107758000370104B4560D3F80435C0E90498C0E9BC
:1077680002369DF806307B709DF8070000F04AF855
:1077780024B9094B4FF48012C3F80021204603B006
:10778800BDE8F0830424EFE70724F7E70824F5E7CA
:107798008C3300200010014000E100E0064A927896
:1077A8003AB130B1426922B1002202740221FFF7D6
:1077B80079BD0820704700BF8C33002070B5EFF307
:1077C800108672B60C4A946801239CB993600B4BDF
:1077D8000B4DD3F8801029401160C3F88050D3F8BE
:1077E800841051604FF0FF32C3F88420047006B94A
:1077F80062B670BD0370FAE7B034002000E100E023
:10780800FC06FFBD084B9A6810B55AB150B9EFF3A2
:10781800108172B6054A1C6814605C6854609860F0
:1078280001B962B610BD00BFB034002000E100E02D
:1078380090B203F03BBE10B561B1B2FBF3F403FBA9
:107848001424A4B244B9C0E9001484608281C381BD
:10785800204610BD0E20FCE70920FAE782B050E868
:10786800022FC188B2EB324F4FF0000317BF92B21C
:1078780041EA014142EA014104E04268B2EB324F79
:1078880008BF012340E80212002AE8D18DF807302A
:107898009DF80730002B0CBF1120002002B0704764
:1078A80037B550E8013F9DB2C48925448489A54273
:1078B80028BF2D1B0489A54202BFBFF32F8F0022CA
:1078C80007E0C5EA030540E80154002CE9D14FF070
:1078D80001028DF803200193019B9DF803200B60A2
:1078E80002F0FF0322B10B880068184403B030BDD2
:1078F8001846FBE70A884B889A4209D150E8012FBD
:10790800C2EA024240E80123002BF7D10120704768
:107918000020704737B550E8023F1FFAA3F5C48826
:10792800A54202BFBFF32F8F00220DE0C489254472
:107938008489A54228BF2D1BC3EA054540E80254A7
:10794800002CE8D14FF001028DF803200193019B30
:107958009DF803200B6002F0FF0322B14B880068FA
:10796800184403B030BD1846FBE70A884B889A4292
:1079780009D150E8022FC2EA224240E80223002B34
:10798800F7D1012070470020704701F01F024B0912
:107998000121914000EB830000F028B801F01F039B
:1079A80001229A404B0900EB8300D14300F034B820
:1079B8004B0901F01F0150F82300C84000F00100F6
:1079C800704750E8002F0B4640E8003C9CF0000F41
:1079D800F7D11046704750E8002F42EA010340E80B
:1079E800003C9CF0000FF6D11046704750E8003F6D
:1079F80043EA010240E8002C9CF0000FF6D1104643
:107A0800704750E8002F02EA010340E8003C9CF070
:107A1800000FF6D11046704750E8003F03EA010214
:107A280040E8002C9CF0000FF6D11046704750E853
:107A3800003F03EB010240E8002C9CF0000FF6D158
:107A48001046704750E8003FA3EB010240E8002CC5
:107A58009CF0000FF6D1104670470121FFF7BBBF1D
:107A68000121FFF7C3BF0021FFF7CBBF10B590B1CD
:107A7800D0E9012301689B1ADBB20A60013BDBB243
:107A8800FF2B026802D10020107110BD11684C1C38
:107A980014600B70F2E70E20F7E737B5054602A829
:107AA800002400F8014DFFF789FE2A686B68116809
:107AB80099420ED9481E106011F8014CEB68A98A4A
:107AC80001FB0434AB6811791B1ADBB2994238BF49
:107AD80013719DF80700FFF795FE204603B030BDEF
:107AE80037B5054602A8002300F8013D0C46FFF70C
:107AF80065FE2A681368591C1160E968641AA98A26
:107B0800B4FBF1F41C709DF80700FFF77BFE03B08F
:107B180030BD826810B504462AB14369016800691E
:107B280098470023A36010BD0EB403B5039929B18B
:107B380002AA04AB42F8043D00F06AF802B05DF80E
:107B480004EB03B07047826830B40468551C856044
:107B5800A154D0E901329A4202D330BCFFF7D9BF11
:107B680030BC70472DE9F84F9946DDE90A431746BE
:107B7800824688460A460126BA420FD24E4538BF89
:107B88004E4613F0010B01D164B900240125B9F167
:107B9800010F1AD909F1FF397D43F8E7B2FBF7F273
:107BA8000136E9E79B070ED5B9F1000F0CBF302568
:107BB8002025A642EAD2013C29465046FFF7C3FFDA
:107BC800002CF6D1E1E72025F3E7B8FBF5F39F4257
:107BD800E2D9DFF83890B8FBF5F3504619F80310EE
:107BE80005FB1388FFF7AFFFB5FBF7F5002DF2D1C2
:107BF800BBF1000F02D00CB1A64201D3BDE8F88F4B
:107C080020215046013CFFF79EFFF4E7961A050035
:107C18002DE9F74F054690460E46002900F03A81B7
:107C280016F8011B002958D0252940F0D1800027DB
:107C380002E047F001071646324612F8013B2D2BA9
:107C4800F7D0302B04D02B2B05D147F00407F2E7EF
:107C580047F00207EFE700242A2B06F101021BD1A7
:107C6800D8F80030191D1B68C8F800101C441646C7
:107C780033782E2B1CD101364FF0000A314611F80B
:107C8800012BA2F13000092814D80A2303FB0A2388
:107C9800A3F1300A0E46F1E712F8013CA3F13001D6
:107CA8000929E5D80A2101FB0434303C1646D3E7FC
:107CB8004FF0000A324612F8011B01F0FB00682859
:107CC8001646F8D0692916D054D8582970D00ED83D
:107CD80025297DD03378002BA2D12B7B002B00F0F7
:107CE800D980284603B0BDE8F04FFFF712BF6329DB
:107CF80068D06429EED1D8F80020D2F80090111D80
:107D080089EAE972C8F80010A2EBE9724FF0010B9A
:107D1800092A61DCD34538BFD3462CB1B9F1000F2D
:107D280001DB790700D5013CBA0702D5BAF1000F8B
:107D380004D0FB0702D4002C54D10024B9F1000F61
:107D480058DAC9F100092D212846FFF7FCFE07F093
:107D58000302022A05D1BAF1000F02D1002C4DD13D
:107D68000024CDE9004753460A2249462846FFF732
:107D7800F9FEAFE7732954D016D87029AAD1D8F8DC
:107D880000301A1DC8F80020302128461C68FFF76B
:107D9800DAFE78212846FFF7D6FE00220823CDE92F
:107DA800003221461022E1E775292FD0782991D198
:107DB800D8F800100A1DC8F80020CDE9004753463E
:107DC80010222CE0D8F800301A1D1978C8F80020C5
:107DD8002846FFF7B8FE7DE70A230BF1010B92FB5B
:107DE800F3F295E7A345A9D220212846013CFFF7E5
:107DF800AAFEA0E77807AAD52B21A5E7A345B0D20C
:107E080030212846013CFFF79EFEA7E7D8F800106E
:107E1800CDE900470A1DC8F8002053460A22096820
:107E2800A4E7D8F800301A1DC8F80020F907D3F8DD
:107E3800009012D54F46A7EB090B17F8011B41B963
:107E4800A345BFF447AF20212846013CFFF77BFE3E
:107E5800F6E72846FFF777FEEDE7B9F1000F17D0F0
:107E6800484605F040FE0746BC4200D954B909F11E
:107E7800FF3919F8011F00293FF42CAF2846FFF7F6
:107E880062FEF6E720212846013CFFF75CFEEBE79F
:107E98004F46E9E703B0BDE8F08F000007B50B4691
:107EA800A0B9154B5B886BB1144B1548154AC01A1D
:107EB8000E23C0080093144B0004144940F001003D
:107EC800FEF7AAFE0E2003B05DF804FB6BB90A4B5F
:107ED8005B88002BF6D0094B09480D4AC01AC00828
:107EE8000E2300930004084BE7E703601B68114664
:107EF80003B05DF804EB1847E02A0020E0170500FE
:107F080048180500531B0500A61A0500581B050054
:107F1800CF1B05002DE9F3419646B0B9504B5B885D
:107F2800002B00F095804F4B4F48504AC01AC008AC
:107F38000E244F4B009400044E4940F00100FEF718
:107F48006BFE204602B0BDE8F0816AB9444B5B88FD
:107F5800002B7DD0434B4448474AC01AC0080E2422
:107F680000040094424BE7E7D0F800C0BCF1000FD2
:107F78000DD13B4B5B88002B6CD03A4B3A483F4ABB
:107F8800C01AC008082400040094394BD4E76BB920
:107F9800334B5B88002B5FD0324B3348384AC01ACA
:107FA800C008092400040094314BC5E74768D7F896
:107FB8000480B3FBF8F708FB17376FB1284B5B88D1
:107FC800002B49D0274B28482E4AC01AC00809243C
:107FD80000040094264BAFE78F070DD0204B5B8839
:107FE800002B3BD01F4B2048274AC01AC00810243A
:107FF800000400941E4B9FE712F0030F0CD0184B9F
:108008005B885BB3174B1848204AC01AC008102475
:1080180000040094164B8FE7C768B9420BD34C1E77
:1080280005691C44AC4206D8DCF80C40A44602B0F2
:10803800BDE8F04160470A4B5B887BB1094B0A48B1
:10804800134AC01AC008102400040094084B73E7B0
:108058000E2476E7082474E7092472E7102470E7F1
:10806800E02A0020E017050048180500531B05000A
:10807800B81A0500581B0500D51B0500C91B0500CB
:10808800881B0500DB1B0500051C05001D1C0500E1
:10809800401C0500F7B5A0B9374B5B88002B63D0AF
:1080A800364B3748374AC01AC0080E24364B00945E
:1080B8000004364940F00100FEF7AEFD204603B04B
:1080C800F0BDD0F800C0BCF1000F0DD12A4B5B8881
:1080D800002B4BD0294B2A482D4AC01AC008082427
:1080E80000040094284BE4E76AB9234B5B88002B13
:1080F8003ED0224B2248274AC01AC008092400044F
:108108000094214BD5E74768D7F800E00EF1FF3718
:108118000F420CD0184B5B8863B3184B18481E4AA3
:10812800C01AC008102400040094174BC1E7C768A0
:10813800B9420CD34C1E05690EFB0244AC4206D86A
:10814800DCF81040A44603B0BDE8F04060470A4B95
:108158005B887BB1094B0A48104AC01AC008102432
:1081680000040094084BA4E70E24A7E70824A5E719
:108178000924A3E71024A1E7E02A0020E01705005E
:1081880048180500531B0500CB1A0500581B0500AD
:10819800C91B0500881B0500DE1A0500041B050025
:1081A80029DF704728DF704770B503689D6886B07F
:1081B80004460E466DB114220021684605F060FCA5
:1081C800A3680593237901962BB1012B0DD068463E
:1081D800A84706B070BD01238DF8003023690293CB
:1081E800E368039363690493F1E702238DF8003091
:1081F800E3681B030293F5E70846704700207047C1
:10820800024B187A003018BF01207047483500200B
:10821800034B187A0122B0FA80F05A74400970476B
:108228004835002008B510461A4605F000FC002025
:1082380008BD000008B514220021044805F020FC00
:108248000348FFF70BFB002008BD00BF483500209E
:10825800682B002010B5094C094B43602046FFF7F6
:10826800FCFB40B904F0ACFF1C2320748C220549A8
:108278000548FFF7E0FA002010BD00BF4835002090
:10828800741C0500BC340020682B002070B5244DF8
:10829800244E2B7A2C463BB923492448FFF73AFB56
:1082A800306008B9686070BD0223237233681A7998
:1082B80072B1012A24D018460321FFF775FF002365
:1082C8002372636018491948BDE87040FFF74DBB39
:1082D800D3E90520121AB2F5805F28BF4FF4805207
:1082E800D3E903159208012A014438BF0122284422
:1082F800FFF756FF50B11128DDD101232372D2E7D1
:10830800D3E903021044FFF74DFFF3E7237C002B6A
:10831800C9D10146BDE87040022000F009B800BF8D
:1083280048350020603500205C350020682B00208F
:1083380038B5831E012B45D8234C237A002B41D016
:10834800022B09D1032830D0204B1B680022E260A1
:108358001A793AB1012A22D0637C7BBBBDE8384048
:10836800FFF794BFD3E905128D1AB5F5805F94BF66
:10837800521902F580529A619142EDD102284FF0CC
:10838800000308BF19462372104B18BF0D21186847
:10839800FFF70AFF0E490F48FFF7E7FADCE71A690B
:1083A80001321A615B699A42E7E7E3680133082BF7
:1083B80001D8E360D0E70023E360DFE7BDE8384099
:1083C80004F0EEBE38BD00BF4835002060350020FF
:1083D8005C350020682B002000F0FD03012B08D13C
:1083E800044B00225A74421E504250411874FFF741
:1083F8004DBF70474835002010B5064C201DFFF7CB
:108408002CFB28B9637C1BB9BDE81040FFF73EBFC1
:1084180010BD00BF483500202DE9F34180460D46C8
:108428000F4801A916461F46FFF73AFA0446A8B1B5
:108438001C22002105F024FB2D0B0123237101A927
:10844800C4F80080A760E56066610548FFF752FA46
:10845800FFF7D2FF002002B0BDE8F0810420FAE760
:10846800682B00202DE9F74381468846104801A96A
:1084780017461E46FFF714FA0446B0B11C22002125
:1084880005F0FEFA00250A9BA36001A92571C4F82E
:108498000090C4E9037866610548FFF72BFAFFF7F7
:1084A800ABFF284603B0BDE8F0830420FAE700BF1D
:1084B800682B00202DE9F047B0F806904479D2F8EF
:1084C80000A09DF8208009FB04F4043C06460AEB52
:1084D8000300A0420F4688BFA4EB030A191DC2F887
:1084E80000A0B1FBF9F509FB15114DB9A9EB010481
:1084F800544528BF5446BAF1000F04D1BDE8F087AF
:108508003668013DF1E704317B1970182246B8F14D
:10851800000F0ED001461846AAEB040A05F087FAA8
:10852800D145254436684C464FF0000128BF5446D3
:10853800E1E71946F0E7FFF799BAF8B54679014639
:10854800721E0546002393422D6803D30024A642D9
:1085580002D8F8BD0133F6E70F682846FFF7C0FADE
:1085680001343946F3E72DE9F843868ACD1C0746DE
:10857800FFF793FA043E35440446B5FBF6F5F0B12F
:108588004FF48073EDB28380C680013D0760814659
:108598004FF00008A84512D23846FFF77EFA064683
:1085A80048B163790133637108F10108C9F8000023
:1085B80007608146EEE72046FFF7BFFF34462046B6
:1085C800BDE8F88301210430FFF731BA10B5012165
:1085D80004460430FFF736FA10F0FF0F04D12046A6
:1085E800BDE81040FFF7A9BF10BD1FB504AC44F8A3
:1085F800042D002200922246FFF75CFF04B010BD54
:108608001FB504AC44F8042D012200922246FFF75E
:1086180051FF04B010BD026813685268934291BFBD
:10862800D01A80680130801888BFC01A70472DE9B9
:10863800F84303681D685C68A54284BF83680133FA
:108648001746884694BF641B5C1BC2684168BC42DD
:10865800064605FB02110CD37A43404605F0E7F9BC
:10866800B3683D449D4288BF002533681D60BDE85E
:10867800F88304FB02F94A46404605F0D8F9F26847
:1086880071683C1B624308EB090005F0D0F93368B8
:108698001C60ECE7036881681A685B688B4234BF2A
:1086A80001330023D31A584258417047F7B504469E
:1086B80002A8002300F8013D0D46FFF77FF8204689
:1086C800FFF7E8FF10B1237C002B3CD12268A66895
:1086D80053685168B14234BF01310021516030B153
:1086E8001168A068814234BF013100211160E2683D
:1086F8006068511E072920D8DFE801F004101F1414
:108708001F1F1F182A78C2542046FFF784FF2368CA
:108718009A68824200D29860002415E02A8820F8DE
:108728001320F1E72A6840F82320EDE7D5E9006730
:1087380000EBC300C0E90067E6E7294602FB030037
:1087480005F075F9E0E704249DF80700FFF75AF8EB
:10875800204603B0F0BDF7B506460F46144600257F
:108768009AB102A800F8015DFFF728F83046FFF734
:1087780052FFA0420CD3224639463046FFF757FF36
:108788002C469DF80700FFF73DF8204603B0F0BDE2
:108798000524F6E737B5054602A8002400F8014D80
:1087A800FFF70CF80C222146286805F069F99DF8B6
:1087B8000700FFF727F803B030BD13B5044602A839
:1087C800002300F8013DFEF7F9FF2046FFF723FFDD
:1087D80004469DF80700FFF715F8204602B010BDC3
:1087E800836800225A609A60C3E90422DA601A603A
:1087F80070470B684A684360934208BF00230160D2
:1088080008BF43607047436843B102689168526883
:108818000B449342436004BF002343607047000049
:108828000D4930B5A1F594720225914201D8002076
:108838000EE08B1ADB1093FBF5F302EBC30452F83E
:108848003330834205D802D204F10802EDE76068AC
:1088580030BD2146E9E700BFEC1D050008B5FFF76C
:10886800DFFF024B002808BF184608BDAE1C0500F4
:108878000D4930B5A1F50E720225914201D80020AC
:108888000EE08B1ADB1093FBF5F302EBC30452F8EE
:108898003330834205DC02DA04F10802EDE7606850
:1088A80030BD2146E9E700BF3429050008B5FFF7C8
:1088B800DFFF024B002808BF184608BD9A210500B3
:1088C80041DF704746DF7047082807D801238340F7
:1088D80040F2F112134201D028F0B0BA704708B53F
:1088E80000F082FA00F080F8002000F025FD10B1B9
:1088F80000F0D0F8FCE708BD704708B500F0CAF8EA
:10890800FCE762B6704772B6704713B502AC002335
:1089180004F8053D01939DF80330032B08D9042181
:108928000DEB010000F066FD30B9019802B010BDF2
:10893800204600F04DFDEEE70020F7E708B50FF000
:1089480059FD4FF47053584308BD30B50D468DB0EE
:108958001446A2B199B190B101461022684605F0BB
:1089680066F8102229460DEB020005F060F868460B
:10897800FFF7A8FF102208A9204605F058F80DB007
:1089880030BD00F071BAEFF30580003018BF012048
:10899800704700004FF08053F7B51C6E596E0025E4
:1089A80045EA0102074D04F0FF070024224347EA85
:1089B800050302A961E90223082205F038F803B08B
:1089C800F0BD00BF000E010BFFF77ABF08B508F035
:1089D80099F8437B33B1FDF779FF18B9BDE8084032
:1089E800FFF76EBF08BD000008B50CF0EFF948B9F5
:1089F800054B1B7813B9054B1B781BB1BDE8084024
:108A08000CF0EAB908BD00BFCD2C0020D02C002006
:108A18002DE9F84307460E460CF0D8F958B1184C22
:108A2800184BDFF86890DFF86880E41AE40824043B
:108A380044F003040EB9BDE8F883D9F80000C0F18A
:108A48000805B542A8BF35462A463946404404F0D1
:108A5800EEFFD9F800202A44082AC9F800202F443C
:108A6800A6EB0506E6D1084B5B88022B03D94146E5
:108A78002046FEF7EBF80023C9F80030DAE700BF1C
:108A880078180500E0170500F82A00206C3500204A
:108A98006435002010B50C4C226882B10B4B5B8802
:108AA800022B0AD90A480B4B0B49C01AC00800040C
:108AB80092B240F00300FEF7C9F800232360BDE836
:108AC8001040FDF703BF00BF6C350020F82A0020D6
:108AD80078180500E0170500643500204FF01023D2
:108AE80058694FF08053411C1A695B6908BF03FB42
:108AF80002F070470378022B01D80CF07BB970475D
:108B080010B5FFF7EBFF0A4C2061FFF7E7FF094BB1
:108B18000949A0F54040E06000222046C3F808213A
:108B2800FFF7BCF918B1BDE81040FFF7E6BE10BD6D
:108B3800982A002070350020801C05004FF48040E2
:108B480070470220704708B513460A4631B143B151
:108B58000146184604F06BFF002008BD6FF00A00BC
:108B6800FBE76FF00B00F8E70128F8B507460C465D
:108B780016461D4612D80B44B3F5804F11D29AB150
:108B8800ADB1FFF7ABFFA4F5404101EB87310144DC
:108B98002A46304604F04BFF0020F8BD6FF038003D
:108BA800FBE76FF01600F8E76FF00B00F5E76FF0E2
:108BB8000C00F2E70128F7B507460C4616461D4695
:108BC80026D80B44B3F5804F25D23AB3AB0828D04A
:108BD800FFF784FFA4F5404404EB873404440CF009
:108BE80011F907460028FAD10CF0FCF82146009745
:108BF8002B4632460C48FFF78DF904460CF002F973
:108C08000028FBD1201C18BF0120404203B0F0BD52
:108C18006FF03800FAE76FF01600F7E76FF00B0017
:108C2800F4E76FF00C00F1E7982A002001282DE9FD
:108C3800F041064626D8FFF751FF00EB8630A0F535
:108C48004044DFF84C8004F580470CF0DBF805461B
:108C58000028FAD10CF0C6F82B46012221464046DE
:108C6800FFF718FA88B90CF0CDF805460028FAD1B4
:108C780004F58054BC42E8D130460CF0CBF82846C5
:108C8800BDE8F0816FF03800FAE74FF0FF30F7E702
:108C9800982A002010B5084CD4F8083153B19BB27B
:108CA8002246D4F8041194F80001FFF783FF00234B
:108CB800C4F8083110BD00BF703500202DE9F84315
:108CC8001C4C1E46D4F8083181460F4690466BB1BD
:108CD80094F80021824207D1D4F804211A44914221
:108CE80002D1B3F5807F01D1FFF7D4FFD4F8080192
:108CF80018B984F80091C4F80471C0F58075B542BC
:108D080034BFADB235464DB12A464146204404F041
:108D18008EFED4F808312B44C4F80831761BB6B25D
:108D280016B93046BDE8F883FFF7B4FF2F44A844CE
:108D3800DCE700BF7035002007B50C4B18680090C1
:108D4800FFF7CCFE0422A0F580410DEB020004F0F1
:108D58006EFE042269460DEB020004F08AFDB0FAAB
:108D680080F0400903B05DF804FB00BF3A29050014
:108D780070B506460D461446FFF7B0FEA4F57F54BD
:108D88003C3C324629462044BDE87040FFF7DBBE34
:108D980000487047402905000422032102708170B1
:108DA800002206214270C170426070477047B0F5DA
:108DB800A27F01D10CF030B87047000008B5FFF76A
:108DC800E7FF00F0A3FFFFF7E3FF00F0ABFF024B64
:108DD80000221A7008BD00BF90360020014B187899
:108DE800704700BF903600201FB502A8FFF7D4FFD8
:108DF800FFF7CEFF104A02A900F00CFF08B1FFF7F9
:108E08007CFDFFF7C5FF0368D3F81045FFF7C0FFE7
:108E1800E2B24FF47031012421FA02F20223214612
:108E2800009400F0CAFFFFF7B3FF00F061FF034BA7
:108E38001C7004B010BD00BFB78D02009036002032
:108E480008B5084B1B780BB9FFF7CEFFFFF7A0FF5B
:108E580000F08EFF28B9FFF79BFFBDE8084000F03F
:108E680047BF08BD90360020F8B5044680B3FFF729
:108E7800A5FF00F08DFA1948194A0378D35C4BB363
:108E8800043001F0C3FB27F079FD002706464FF4B4
:108E98007A751448144B836039466C434460C76044
:108EA800066027F077FD26F0C3FDFFF78DFD26F05D
:108EB800ADFD27F063FD841BFFF7C2FF384600F0C5
:108EC8003BFA08B1FFF719FDFDF764FBB4FBF5F4B5
:108ED8002046F8BD0C3001F077F9D4E74C2B002080
:108EE8000C3700207C360020B58D0200074B1B5C38
:108EF8001F2B8ABF064A4FF0A04203F01F03D2F887
:108F08000405D840C04300F0010070474C29050013
:108F180000030050074B1B5C1F2B86BF03F01F0389
:108F280005494FF0A041012202FA03F3C1F80C35BC
:108F3800704700BF4C29050000030050074B1B5C1D
:108F48001F2B86BF03F01F0305494FF0A0410122E4
:108F580002FA03F3C1F80835704700BF4C29050031
:108F68000003005008B50020FFF7E8FF0120FFF7D5
:108F7800E5FF0220FFF7E2FF0320BDE80840FFF706
:108F8800DDBF08B50020FFF7C5FF0120FFF7C2FFCE
:108F98000220FFF7BFFF0320BDE80840FFF7BABF74
:108FA8000A4B185C1F288ABF094B4FF0A04300F0FA
:108FB8001F00D3F804250121814021EA02000A405C
:108FC800C3F80805C3F80C25704700BF4C290500F5
:108FD80000030050074B1B5C1F2B8ABF064A4FF04B
:108FE800A04203F01F03D2F81005D840C04300F098
:108FF8000100704748290500000300500B2809D0DC
:109008000C2809D0182809D019280CBF03204FF0C4
:10901800FF307047002070470120704702207047DA
:10902800C20710B504460CD54FF0A0430322C3F87D
:109038003427C3F83827C3F83C27C3F84027FFF77D
:1090480091FFA3070AD54FF0A0430C22C3F82C27A1
:10905800C3F83027C3F86027C3F8642710BD42DF80
:10906800704743DF7047000038B5084C04F1080327
:109078000546002818BF1C4623682BB11A682260D1
:109088005B6828469847F7E738BD00BF9C36002044
:1090980020B9054B01225A70FFF7E6BF012802D11B
:1090A800014A9070F8E770479436002020B9034BC6
:1090B80001225A70FFF7D8BF704700BF94360020CE
:1090C80038B50B4C237883B90A486360A3602361E1
:1090D800E36000F03DFA054604F072F808B900F0C4
:1090E80045FA01232370284638BD8525FBE700BFD4
:1090F800943600209990020037B5184CA37805469D
:1091080003F0FF029BB110B1436801209847002388
:109118000DF107008DF80730FEF750FBE3689DF866
:1091280007000133E360FEF76DFB03B030BD0DF1BE
:1091380007008DF80720FEF741FB25B12269134689
:109148003BB92A602561E368002BE7D100F022FAD9
:10915800E4E79D42F7D01B68F2E700BF9436002091
:1091680037B502A80023094C00F8013DFEF726FB9D
:10917800E368013BE360E56815B900F019FAA570EA
:109188009DF80700FEF73EFB03B030BD9436002083
:10919800012813B509D003D303281BD002B010BD92
:1091A8000F4B0122C3F88020F8E702A800230D4CDA
:1091B80000F8013DFEF702FB23780BB9FFF780FFAB
:1091C800E3689DF807000133E3600123A370FEF70D
:1091D80019FBE3E700F0CAF9FFF7C2FFDEE700BFBB
:1091E80000E100E09436002037B51B4C6378054653
:1091F80003F0FF029BB110B1436800209847002399
:109208000DF107008DF80730FEF7D8FA63689DF86E
:10921800070001336360FEF7F5FA03B030BD0DF1C6
:1092280007008DF80720FEF7C9FA25B1A268134692
:1092380053B92A60A5606368002BE7D103F0C0FF2B
:1092480030B1FFF70CFFE1E79D42F4D01B68EFE770
:1092580000F0BAF9DAE700BF9436002073B502A827
:1092680000230D4C00F8013DFEF7A8FA6368013BA6
:109278006360666836B903F0A3FF054640B1FFF79F
:10928800F0FE66709DF80700FEF7BCFA02B070BDEC
:1092980000F0A6F96570F5E79436002030DF7047D6
:1092A80031DF70471FB58DF8070004A8002300F8C8
:1092B800013DFEF783FA03F083FF50B90DF1070172
:1092C8000748FFF7F3F90648FFF7E4F908B100F09B
:1092D8006FFC9DF80F00FEF795FA05B05DF804FBEA
:1092E8008017050007B520B103280BD003B05DF83F
:1092F80004FB0F4B1B78012BF8D100F059FC00F050
:109308005FFCF3E702A8002300F8013DFEF756FAD8
:1093180007480378012B05D10649013000F006FC07
:1093280000F034FC9DF80700FEF76CFADEE700BF9A
:10933800F8360020AD92020013B5124C2378F3B929
:10934800114A002808BF10460288A4F8012002A884
:1093580000F8013DFEF732FA03F032FF30B90B494D
:10936800601C00F0E3FB40B900F010FC01239DF8FD
:1093780007002370FEF746FA002002B010BD8520D2
:10938800FBE700BFF836002056290500AD92020021
:1093980007B502A8002300F8013DFEF70FFA03F015
:1093A8000FFF18B900F004FC00F00AFC9DF8070054
:1093B800FEF728FA0448FFF7EDF9044B00221A706B
:1093C80003B05DF804FB00BF80170500F8360020E5
:1093D80010B5044603F0F4FE20B90548FFF7EDF98F
:1093E800207010BD2046FFF759FF0028F5D1F8E797
:1093F800801705002DE9F7430024DFF8589005464B
:109408000E46A0460DF107008DF80780FEF7D6F945
:1094180003F0D6FE074638B9324629464846FFF7D4
:109428009AF9044600F0B2FB9DF80700FEF7EAF946
:1094380047B131462846FFF733FF42F20703984207
:10944800044605D0022CDDD0204603B0BDE8F083E9
:109458000524F9E7801705001FB503788DF800305B
:1094680043680193037A8DF80830C3680393054A6B
:10947800054B684653F8213052F82110984705B03B
:109488005DF804FBFC360020043700201FB5037884
:109498008DF800304368019383688DF80830C368FD
:1094A8000393054A054B684653F8213052F82110BA
:1094B800984705B05DF804FBFC360020043700200F
:1094C800F0B5194B0678DFF870E043F82620174B03
:1094D80094460A6943F826204B7F0EF806300C465E
:1094E80007460FCC89B06D460FC594E80F0085E894
:1094F8000F001EF80630049653B1BCF1000F0C4A59
:10950800694608BF0022381D00F09EFF09B0F0BD73
:10951800BCF1000F074A694608BF002207F10C009A
:1095280000F078FDF2E700BF04370020FC36002089
:1095380061940200959402000C37002000F18040ED
:10954800002382B0036003680193019B02B0704757
:10955800054A13792BB9012110601171537118460E
:1095680070478520704700BF10370020084B1A68E5
:10957800D20706D4C02283F800230122C3F8802131
:109588001A604FF080430122C3F81825704700BFC6
:1095980000E100E008B54FF48270FFF7CFFF4FF00D
:1095A80080430222C3F8042301229A6008BD000008
:1095B800044B01221A604FF08042D2F81834DB03C2
:1095C800FBD470470C00004008B54FF48070FFF7DB
:1095D800B5FF4FF080430122C3F804231A6008BD89
:1095E800074B01221A604FF08042D2F80C3403F086
:1095F8000113B3F1011FF8D0024B00225A717047D2
:109608000400004010370020124B1B6810B573B1DE
:109618004FF48070FFF792FF4FF080430122C3F8A8
:1096280008230D4B587910B95A711B6898470B4B92
:109638001B6873B14FF48270FFF780FF4FF08043CF
:109648000222C3F80823044B01201B68BDE8104020
:10965800184710BD000100401037002004010040E9
:1096680000F1804000F5C040002382B00360036829
:109678000193019B02B0704703681F2B83BF03F05F
:109688001F03036001484FF0A040704700030050DB
:1096980007B502AB43F8040D1846FFF7EDFF019B31
:1096A80000EB8300D0F8003723F44033C0F80037CC
:1096B800D0F8003743EA0141C0F8001703B05DF85D
:1096C80004FB0000054B4FF0FF32072843F8202029
:1096D80084BF1B1883F85820704700BF1837002034
:1096E80010B5174C94F86A3043BBFF21E2180133D8
:1096F800302B82F83010F9D10021C8B2FFF7E2FF11
:1097080001310C29F9D1062200210E4804F0B8F9DC
:109718000D4BC02283F806234022C3F880214FF462
:10972800BE701A60FFF79CFF084B4FF00042C3F869
:109738000423012384F86A30002010BD0820FCE7C8
:10974800183700207C37002000E100E0006000406E
:10975800034B93F86A00003018BF0120704700BF20
:1097680018370020F7B5404F3B18044693F93030BE
:10977800002B944675DA8B78C3F34003002B15BF92
:109788000025082508200C20854202D1042003B0BA
:10979800F0BD57F8252001324FEA850649D138191E
:1097A80047F825C080F8305013B97B1983F8584022
:1097B8008B785A071BD4D8073DD502A840F8084D26
:1097C800FFF75AFF009B00EB8300D0F8003723F027
:1097D8000203C0F800372548E20804F0070C01230B
:1097E80003FA0CF310F802C043EA0C038354887898
:1097F80091F800C010F002002AD006F1804303F56A
:10980800C0432402D3F8102522F44F3222F44072C8
:10981800C3F810254FEA0C4CD3F8102504F47C54F7
:109828000CF4403C44EA0C041443C3F810450020EF
:10983800ADE70135A8E702A84A7840F8044DFFF7DC
:109848001BFF019B03F5E073920040F82320C2E759
:10985800083D3D4495F8604044EA8C1C85F860C09A
:1098680095E7082093E700BF183700207C370020D1
:1098780073B5224C2518064695F93020072A1ADDBB
:10988800224492F858309B09032B10D102A840F8C3
:10989800046DFFF7F1FE019AD0F81035D340DB07CD
:1098A80007D402213046FFF7F3FE02B070BD012B4A
:1098B800F7D00321F6E7D3B2072BF6D8930003F1CC
:1098C800804303F5C043D3F8100540F00100C3F806
:1098D800100502F14000800080B2FFF7C1FE0029A8
:1098E800E3D095F9303054F82330002BDDD0012334
:1098F80003FA02F2024BC3F80423D6E71837002014
:109908000060004007B502AB43F8040D1846FFF7A6
:10991800B3FE019BD0F81005D84000F0010003B059
:109928005DF804FB2DE9F04F002489B0CDE902442D
:109938005F4A604E604D01211368A2F5C040012BBB
:1099480080B206D1D6F804330B4202D0FFF788FE66
:109958000C430432AA424FEA4101EDD1574B1B6830
:10996800012B0ED14FF4BE70FFF77AFE4FF0A043E3
:1099780044F00044D3F810350293514BD3F8103516
:10998800039314F0FF0F1AD04E4F002501263442DE
:1099980010D0AB0003F1804303F5C043D3F81005A2
:1099A800D3F8101557F82530C0F30520C1F301414D
:1099B80003B198470135082D4FEA4606E7D1002C38
:1099C80072DA04AE0023049373604FF0FF33CDE9DD
:1099D80006333C4F4FF0010800252C467B1993F9BC
:1099E8006020531C47D0D2B222F0C00908A84FEA21
:1099F800D90300EB030B02F007011BF8080C08FA67
:109A080001F1084237D007EB0900920990F93000BC
:109A180057F820A0BAF1000F05D1032A2BD1F05C2A
:109A28000843F05401E0032AF9D001A8CDF80490C6
:109A3800FFF722FE019B03F5E07350F823301BF873
:109A4800180C0842C3F3014305D0022B13D1032A93
:109A58000BD1114604E0032B0DD1032A05D10221B5
:109A68004846FFF715FE0134E4B2BAF1000F02D000
:109A780011464846D0470135042DAFD1A4B14FF067
:109A8800A0430299D3F8102503F540739142D3F807
:109A9800103502D10399994206D002920393049A91
:109AA800059B0692079397E709B0BDE8F08F00BFC2
:109AB8000061004000600040206100407C6100407F
:109AC8000003005018370020014B1B68184700BFDF
:109AD800843700200D4B984237B50D4610D102A8A7
:109AE800002300F8013DFDF769FE094B1C7914B904
:109AF80001221D601A719DF80700FDF783FE14B955
:109B0800002003B030BD1120FBE700BF002000405B
:109B180084370020034B984201BF034B00221A6090
:109B28001A717047002000408437002010B5134C8C
:109B380022780ABB124B1960037813F0010F114BFE
:109B48001EBFD3F8042542F00102C3F80425D3F858
:109B5800002222F00102C3F8002243780A4A5B017E
:109B6800DBB282F80D334FF40053C2F88031136032
:109B780001232370002010BD8520FCE790370020CA
:109B88008C37002000D0004000E100E0064B0022A6
:109B98001A6082B01B680193019B044B0122C3F831
:109BA80004231A6002B0704700D1004000D0004082
:109BB800024A0123C2F808335360704700D00040BE
:109BC800064A0123C2F808335360054B4FF400528C
:109BD800C3F88020034B00221A70704700D0004061
:109BE80000E100E090370020074B00221A6082B0A5
:109BF8001B680193019B054BD3F80805044B1B68B0
:109C0800C0B202B0184700BF00D1004000D00040E9
:109C18008C370020F7B50579334C0C266E43A7190D
:109C28003B7A002B5ED1A2514A687A604679006877
:109C38001F46DAB296424BD8020B53B2CE78002BAD
:109C4800A8BF03F16047D2B24FEA5313B8BF02F07E
:109C58000F0C4FEA4616B4BF244F07F561474FEA89
:109C68008303F6B203F16043B4BF07F80C6087F8CA
:109C7800006303F56143012602F01F0206FA02F2AF
:109C8800C3F880211A60D0F804254B7822F003022B
:109C980003F003031343C0F80435D0F808258B7884
:109CA80022F0030203F003031343C0F80835D0F889
:109CB80010250B7822F00F0203F00F031343C0F8AE
:109CC80010350C2303FB05440020267203B0F0BDB9
:109CD80003F15002013340F8227050F8222001921B
:109CE800019AA6E70820F1E79437002014ED00E078
:109CF800036801221A600379034A0C2101FB03233C
:109D080002221A72704700BF943700200368044982
:109D180001221A6103790C2000FB03131A727047A1
:109D2800943700200268110B38B54BB201245B0947
:109D380001F01F0104FA01F120330B4C44F8231001
:109D48000546D2F8003200244FF0FF33C2F8004233
:109D5800C2F80833FFF7DAFF2B79044A0C2101FB1C
:109D680003231C7238BD00BF00E100E094370020D7
:109D78000379044A0C2101FB0323187A831E5842F5
:109D8800584170479437002037B54FF480348C40E1
:109D980000687BB101F150039B000025C550C358F2
:109DA8000193019BC0F8044301F5A87140F82120F4
:109DB80003B030BDC0F80843F6E7F0B404689DF876
:109DC8001070D4F8005240F201168E4025EA0605BC
:109DD800C4F80052D4F800522B43C4F800323B4672
:109DE800F0BCFFF7D1BF00002DE9F341104C114F33
:109DF800114E00254FF48038236804F5C04080B226
:109E08006BB1D7F8043308FA05F21A4207D00023D9
:109E1800236023680193019BD6E9003198470135F7
:109E2800062D04F10404E7D102B0BDE8F08100BFBB
:109E380040A1014000A00140943700200023435076
:109E480082B043580193019B02B070470A4610B58F
:109E58004FF48E71FFF7F2FF136A9168C95C136AB9
:109E680001331362C0F81C1510BD8B690A4610B582
:109E78004FF4847123B9FFF7E1FFD0F8183510BD0E
:109E8800FFF7DCFF536AD168D0F81805C854536A45
:109E980001335362F3E700001FB501238DF800304A
:109EA800044BCDE90110D3E900126846904705B08C
:109EB8005DF804FBA037002030B54C4AD2F80433D3
:109EC80013F4007F85B015464FD0D2F82431002B0B
:109ED8004BD04FF492711046FFF7B0FF4FF4017367
:109EE800C2F80833424B93F8291009B9012151608F
:109EF8003E4902228DF80020D1F88024C1F8802440
:109F080003929A690292DA6801920022C3E9062252
:109F18006846D3E9001290473448D0F81C315BB149
:109F280033490A6A4B699A420A464BD291F828305B
:109F3800002B47D1FFF78AFF2C4AD2F8443193B15E
:109F48004FF4A2711046FFF779FF294B93F82910B7
:109F580009B1012111609A692AB100229A61586AEF
:109F6800D968FFF799FF05B030BDD5F804335B0712
:109F7800D2D5D5F80831002BCED01D4C1B48214630
:109F8800FFF773FF636AA2699A422346C4D1E26964
:109F9800E1684AB12369E3600023606AA261E36172
:109FA8006362FFF779FFB7E794F829200AB901221D
:109FB8006A600E4A4FF40170C2F8080300229A61E1
:109FC800586AEEE74FF48E710848FFF737FF51697A
:109FD8000029B1D00023029191688DF800300191D9
:109FE80053616846D2E900139847A5E7002000406E
:109FF800A03700201F2886BF00F01F00044B4FF039
:10A00800A04300F5E070022243F82020704700BF0B
:10A01800000300502DE9F843664B047991462C2241
:10A0280002FB0432064692F82A200D469846002A7A
:10A0380040F0BC8060490068FFF74CFD07460028E7
:10A0480040F0B68029684A1C10D01F2987BF01F04C
:10A058001F035A4A0B464FF0A0420120984003F5CF
:10A06800E073C2F80805032042F823006868431C1F
:10A078000DD01F288BBF00F01F0303464F4A4FF037
:10A08800A04203F5E0734FF0000C42F823C0336898
:10A09800AA6995F814C0C3F824256A7DBCF1010F9C
:10A0A8004CEA0202C3F86C25C3F81405C3F80C1572
:10A0B8002BD1A968481C0DD01F298BBF01F01F02A6
:10A0C8000A463E484FF0A04002F5E0724FF0000CFF
:10A0D80040F822C0E868421C13D01F2887BF00F050
:10A0E8001F0C364A84464FF0A0424FF0010E0EFA7C
:10A0F8000CFE0CF5E07CC2F808E54FF0030E42F8C0
:10A108002CE0C3F80805C3F810152C23634308EBAB
:10A118000302C2F804902A6948F80320B9F1000F35
:10A1280031D04FF48E7130682D7FFFF787FE30688D
:10A138004FF4A271FFF782FE3268214BC2F8043354
:10A14800120B53B2002BA8BF03F160404FEA531320
:10A158004FEA4511BABF1B4802F00F0500F56140F0
:10A168004FEA8303C9B203F16043B4BF415580F895
:10A17800001303F5614302F01F02012101FA02F204
:10A18800C3F880211A6033680422C3F800252C2301
:10A1980003FB04830022C3E9062283F829205A61BD
:10A1A800012283F82A203846BDE8F8830827FAE711
:10A1B8001127F8E7A0370020C19E020000030050D5
:10A1C8008000020014ED00E02DE9F04103680479F5
:10A1D800254D0022C3F800252C2202FB0452064616
:10A1E800526872B1214AC3F80823190B4AB20120F8
:10A1F800520901F01F0100FA01F120321C4840F811
:10A208002210D3F80C05D3F81485D3F80815D3F821
:10A2180010754FF0FF329042C3F81425C3F80C258F
:10A22800C3F80825C3F8102501D0FFF7E3FEB8F1FD
:10A23800FF3F02D04046FFF7DDFE7A1C02D03846C9
:10A24800FFF7D8FE4B1C02D00846FFF7D3FE306854
:10A25800FFF760FC2C2303FB0454002384F82A3006
:10A268006360BDE8F08100BFA037002084020200CF
:10A2780000E100E02DE9F843224F06794FF02C0960
:10A2880009FB067480466569002D37D16261A160BB
:10A2980025624FF48E71006884F82850FFF7CEFDD0
:10A2A800D8F80000012383602146FFF7CFFD6368DB
:10A2B800A1462BBBD8F80050226A63699A4212D390
:10A2C800D8F80030D3F81C21002AFBD00122DA602C
:10A2D80000202C2303FB067600237361BDE8F88376
:10A2E80094F8283043B9D5F81C31002BF8D04946EA
:10A2F8002846FFF7ABFDDFE70F20EAE71120EDE77F
:10A308002846EBE7A03700200023435082B043588B
:10A318000193019B02B070471FB501238DF80030EF
:10A32800054B8DF8080001916846D3E90012904763
:10A3380005B05DF804FB00BFCC3700207FB5384A74
:10A34800D2F82461002E49D010464FF49271FFF7DD
:10A35800DBFF02238DF80030D2F88034C2F8803455
:10A368000393D2F83C358DF808302E4BDA68019209
:10A378000022C3E906226846D3E900129047284A1A
:10A38800D2F8443173B14FF4A2711046FFF7BCFF05
:10A39800244B996931B100219961D2F83C05D968FB
:10A3A800FFF7BAFF1E4AD2F82031ABB14FF49071D3
:10A3B8001046FFF7A9FF1B4B596969B1D2F84C1534
:10A3C8008DF80810002299688DF8002001915A61D3
:10A3D8006846D3E90012904704B070BDD2F8103136
:10A3E800002BCCD04FF488711046FFF78DFF0D4B32
:10A3F800D2F83C0599698842C1D1DC69D96864B151
:10A40800D2F8005225F02005C2F800521A699C6162
:10A41800DA60DE61FFF780FFB1E79C61FAE700BF11
:10A4280000200040CC3700201F2886BF00F01F0006
:10A43800044B4FF0A04300F5E070022243F82020BF
:10A44800704700BF000300502DE9F8436A4B0679B6
:10A458009146242202FB0632044692F820200D463B
:10A468009846002A40F0C48064490068FFF732FB30
:10A478000746002840F0BE802868421C10D01F28DC
:10A4880087BF00F01F035E4A03464FF0A042012138
:10A49800994003F5E073C2F80815032142F8231028
:10A4A80069684B1C0DD01F298BBF01F01F030B4699
:10A4B800534A4FF0A04203F5E0734FF0000C42F806
:10A4C80023C02368AA6995F814C0C3F824256A7DB7
:10A4D800BCF1010F4CEA0202C3F86C25C3F80C0565
:10A4E800C3F814152BD1A968481C0DD01F298BBFA0
:10A4F80001F01F020A4642484FF0A04002F5E07200
:10A508004FF0000C40F822C0E868421C13D01F2806
:10A5180087BF00F01F0C3A4A84464FF0A0424FF024
:10A52800010E0EFA0CFE0CF5E07CC2F808E54FF0BF
:10A53800030E42F82CE0C3F80805C3F810152423CD
:10A54800734308EB0302C2F804902A6948F8032011
:10A55800B9F1000F3BD04FF4887120682D7FFFF7C9
:10A56800D3FE4FF490712068FFF7CEFE4FF492713E
:10A578002068FFF7C9FE20684FF4A271FFF7C4FEF8
:10A588002268204BC2F80433120B53B2002BA8BF29
:10A5980003F160404FEA53134FEA4511BABF1A4816
:10A5A80002F00F0500F561404FEA8303C9B203F1D9
:10A5B8006043B4BF415580F8001303F5614302F0CE
:10A5C8001F02012101FA02F2C3F880211A602368F0
:10A5D8000822C3F80025242303FB06830022C3E9CD
:10A5E80006225A61012283F820203846BDE8F88304
:10A5F8000827FAE71127F8E7CC37002045A302001F
:10A60800000300501003020014ED00E02DE9F041B2
:10A6180003680479254D0022C3F80025242202FB93
:10A6280004520646526872B1214AC3F80823190B2E
:10A638004AB20120520901F01F0100FA01F120324B
:10A648001C4840F82210D3F80C05D3F81485D3F829
:10A658000815D3F810754FF0FF329042C3F80C2557
:10A66800C3F81425C3F80825C3F8102501D0FFF74F
:10A67800DBFEB8F1FF3F02D04046FFF7D5FE7A1C5B
:10A6880002D03846FFF7D0FE4B1C02D00846FFF731
:10A69800CBFE3068FFF73EFA242303FB0454002363
:10A6A80084F820306360BDE8F08100BFCC3700201B
:10A6B8001003020000E100E001F06043B3F1005F25
:10A6C8002DE9F041074632D11C4B0679242505FBBC
:10A6D800063598466C6964BB6A61A96000684FF4E6
:10A6E8009071FFF711FE4FF4AC713868FFF70CFE5C
:10A6F8003B686A69A968C3F84415C3F8482501226C
:10A708009A606A68BAB9D3F82011D3F8582149B9C0
:10A71800002AF8D00F20242303FB06860023736148
:10A72800BDE8F081002A14BF0F200020F3E71020B5
:10A73800F6E71120F4E72046F2E700BFCC37002007
:10A748000220FEF72DBC00002DE9F04781460D469A
:10A75800FEF754FC0328044604D8012D04D024D362
:10A76800022D2FD0BDE8F087194D47003A18A918D7
:10A77800AE5C4A7852B1DFF86880164842464FF41A
:10A788000041FCF7C7FF08B988F800903B192B4433
:10A798009A78114B1A55002EE4D0104B1B68002BE9
:10A7A800E0D03046BDE8F04718470A48FCF7F6FF06
:10A7B800074B04EB440213449E78074B1B5DB342DE
:10A7C800D0D1E8E7024B00EB40041C446678E2E78E
:10A7D80054380020143800206D38002068380020D4
:10A7E800F037002002210078FFF7AEBF08B5094B0B
:10A7F8001B7853B10020FEF7A1FB0120FEF79EFB5A
:10A808000320BDE80840FEF799BBBDE80840FEF705
:10A81800A9BB00BFF1370020F8B57B4C237805466B
:10A828001BB100232370FFF7E1FF172D00F288808A
:10A83800DFE805F00C17174354657680888D888DFE
:10A84800959A9A9A9A9AC4C9D1D9E4E4FFF7CEFFA7
:10A858006E48FCF7A3FF6E4B002204461A70204690
:10A86800F8BD0020FEF742FBF8B10020FEF766FBBA
:10A87800022D0CBF4FF4E1614FF47A61644B1D70F7
:10A888004FF400404FF4FA740025E0FB01454FF403
:10A898007A7200232046294602F04EFE0022014625
:10A8A8005A48BDE8F840FCF735BFFEF733FB022DE8
:10A8B8000CBFC8214FF4C871E0E70020FEF716FB73
:10A8C80040B10020FEF73AFB4FF44871504B032289
:10A8D8001A70D5E7FEF71EFBC821F7E70020FEF740
:10A8E80005FB38B10020FEF729FB4FF47A61484B8D
:10A8F8000422EDE7FEF70EFB4FF4C871F7E70020DE
:10A90800FEF7F4FA48B10020FEF718FB404B052289
:10A918001A7041F69A110022C2E7FEF7FBFAF5E732
:10A928000020FEF73DFB3A4B06221A70002240F643
:10A93800CD41B5E70020FEF7EDFA354B07221A7036
:10A9480000248CE701202070FEF72AFBEEE70120A7
:10A958002070FEF725FB00224FF48041A0E7FEF7A8
:10A9680010FB2B4B0C22EAE72A482B4EFCF716FF6C
:10A97800D5F1110504461CD0D8B9012D13D0C82330
:10A988005D434FF400474FF4FA7000214FF47A7298
:10A998000023C7FB050102F0CFFD224601461D48F2
:10A9A800FCF7B8FE04460220FEF7B4FA0123337020
:10A9B80055E70220FEF7C2FA0023F8E7FFF716FF73
:10A9C800134B1222BBE7FFF711FF0020FEF7A2FA94
:10A9D8000F4B1322B3E7FFF709FF0120FEF79AFA9E
:10A9E8000B4B1422ABE7FFF701FF0020FEF792FAAA
:10A9F8000120FEF78FFA064B1522A0E7FEF7C1FAF1
:10AA0800034B1D709CE700BF6438002034380020D9
:10AA18006C380020F4370020F1370020044B1B6805
:10AA2800DB0703D5034B1878FFF7F6BE704700BF66
:10AA3800603800206C380020032801D8FEF7CABA15
:10AA480000207047044B1B6813F0010301D0FFF787
:10AA5800E3BE1846704700BF6038002038B51C4B6D
:10AA680018601C4B10F00204054619601AD01A4BE6
:10AA78001A480E221A700F22DA7010229A711122C7
:10AA88005A72042140F26662FCF772FB044648B928
:10AA9800FCF7C2FB044628B90146114A1148FCF7E5
:10AAA80027FE0446EB0711D50120FEF7B9FA6CB969
:10AAB80021460D4A0D48FCF71BFE044630B90C4AE6
:10AAC8000C480121BDE83840FCF712BE204638BDCD
:10AAD800603800206838002054380020902905008C
:10AAE800EDA70200B429050025AA0200B82905002F
:10AAF80049A70200B029050076DF70477ADF704762
:10AB08007CDF70477FDF70478FDF7047B1DF7047AA
:10AB1800FCF798BB10B540F223320021044609F037
:10AB2800F1FE0C2109F080FD4FF0FF324270C27037
:10AB3800042202710122427102220023827106223C
:10AB48006FF00201C37102720822017081704372B2
:10AB58008272C37202492046BDE8104015F029BE32
:10AB6800A9B5020030B54FF4127289B0002109F07E
:10AB7800C9FE0023ADF81E30144B5B88022B054636
:10AB880009D91348134B1449C01AC008000440F0EF
:10AB98000300FCF729F8002422460094022311211F
:10ABA80028460EF0FFFA4FF482730622CDE90232EE
:10ABB8000123CDE900430146049423460DF11E020A
:10ABC80028460EF0A1F909B030BD00BFC82A002000
:10ABD80018180500E0170500BB2B050070B540F2FA
:10ABE800772288B00C46002109F08CFE0023ADF8CE
:10ABF8001E301A4B5B88B4FA84F5022B06464FEADE
:10AC080055150AD91648174B1749C01AC008000429
:10AC1800224640F00300FBF7EBFF00242246009495
:10AC28000223112130460EF0BDFA0F234370022390
:10AC3800837008224FF482730570C470CDE9023224
:10AC48000123CDE90043011D049423460DF11E02A2
:10AC580030460EF059F908B070BD00BFC82A002070
:10AC680018180500E01705009F2B050070B54FF474
:10AC78000A7288B00C46002109F044FE0023E61A47
:10AC8800ADF81E30154B5B8818BF0126022B054610
:10AC98000AD91348134B1449C01AC00800042246A5
:10ACA80040F00300FBF7A4FF00243346224600943B
:10ACB800112128460EF076FA4FF482730622CDE968
:10ACC80002320123CDE900430146049423460DF1E5
:10ACD8001E0228460EF018F908B070BDC82A0020D8
:10ACE80018180500E0170500872B0500F7B55F4E1B
:10ACF80005460DF07FFB72685D4B841A9C4288BF45
:10AD0800141A412CB5FA85F7284694BF002401246B
:10AD18007F09FFF791FE68BB44BB3B4601222146F1
:10AD2800544809F05DFB45420746FDB1524B5B882C
:10AD38009BB12846FDF7BAFD504C514B5149E41AD6
:10AD4800E40840F27A33240401934F4B00932A46D7
:10AD5800034644F00100FBF76BFFFBF7B7FD002843
:10AD6800FBD1C7F59C402030FCF76CFA0023337008
:10AD780003B0F0BD002C54D03B46012200214348CB
:10AD880009F02EFB46420746FEB13B4B5B889BB160
:10AD98003046FDF78BFD394C394B3A49E41AE40843
:10ADA80040F2863324040193374B0093324603461E
:10ADB80044F00100FBF73CFFFBF788FD0028FBD1BE
:10ADC800C7F59C402030FCF73DFA2946132230484D
:10ADD8000CF0E0FE45420646002DC9D0264B5B88A4
:10ADE8009BB12846FDF762FD244C254B2549E41A02
:10ADF800E4084FF4627324040193234B00932A461A
:10AE0800034644F00100FBF713FFFBF75FFD002842
:10AE1800FBD1C6F59C40203003B0BDE8F040FCF7FC
:10AE280011BA294603221A480CF0B4FE45420646D8
:10AE3800002D9DD0104B5B889BB12846FDF736FD51
:10AE48000E4C0F4B0F49E41AE40840F28E332404E9
:10AE580001930D4B00932A46034644F00100FBF78B
:10AE6800E7FEFBF733FD0028FBD1D2E7C0490020FD
:10AE7800FEFFFF7F75AC0200C82A002018180500E5
:10AE8800E0170500D32A0500EA2A0500E5AB020011
:10AE9800F5AC02000388212B13B5044642D01ED816
:10AEA800112B27D0132B49D0102B16D12B4B5B8895
:10AEB800022B09D92A482B4B2B49C01AC008000479
:10AEC80040F00300FBF790FE0720FFF7BBFD08B139
:10AED800FCF7B8F9A288254B1A8002B010BD522B96
:10AEE80034D0562B01D03B2BF7D11321A088FFF784
:10AEF80003FE1EE0194B5B88022B09D91848194B31
:10AF08001B49C01AC008000440F00300FBF76CFEA0
:10AF18000020FEF713F80120FEF710F8134B4FF648
:10AF2800FF72D9E702A9002321F8043D8088FFF7C2
:10AF3800EBFD0028D1D0FCF785F9CEE70B480023BC
:10AF48001A4685210088FFF7DDFDF2E70748002350
:10AF58001A4619460088FFF7D9FDEAE7C82A0020F3
:10AF680018180500E0170500BC290500722C002000
:10AF7800C62905000E4B4A881B889A4216D10A88B2
:10AF880040F677239A4211D10A4B5B88022B0DD9E0
:10AF9800094A0A488B880A49801A033BC0089BB2B1
:10AFA80000041A4640F00300FBF72CBE704700BFB0
:10AFB800722C0020C82A0020E01705001818050088
:10AFC8003E2A050008B503784BB9054B3B21188884
:10AFD800FFF792FD18B1BDE80840FCF733B908BD8A
:10AFE800722C002073B50546D8B140F29E2200218C
:10AFF80009F088FC0B2109F0C1FB0B220021044653
:10B0080002F03EFD05F07EFD03882381A37A00212E
:10B018006FF3C7132846A37202B0BDE8704016F05C
:10B02800F9B9154809F049FA4542064615B3134BD4
:10B038005B889BB12846FDF739FC114C114B12492E
:10B04800E41AE4084FF42B73240401930F4B009384
:10B058002A46034644F00100FBF7EAFDFBF736FCFD
:10B068000028FBD1C6F59C40203002B0BDE87040F6
:10B07800FCF7E8B802B070BDEDAF0200C82A0020A6
:10B0880018180500E0170500D32A0500EA2A05006C
:10B0980010B50621012014F097FD0821044601206F
:10B0A80014F092FD144B204010F0FF0F5B8813D072
:10B0B800022B09D91148124B1249C01AC0080004C2
:10B0C80040F00300FBF790FD0F4B01220320BDE881
:10B0D80010401A70FDF71EBF022B0BD90748084B0A
:10B0E8000A49C01AC008000440F00300BDE8104037
:10B0F800FBF77ABD10BD00BFC82A0020181805004C
:10B10800E01705000F2A0500084A00202B2A050031
:10B1180013B5184C628862B1174B1848184A194978
:10B12800C01AC00800044FF42F7340F00100FBF769
:10B1380069FD63889BB10120FDF7B8FB0F4C0E4BEE
:10B148001149E41AE4084FF42F73240401930122EF
:10B158000B4B0093034644EA0200FBF769FDFBF73B
:10B16800B5FB0028FBD144F6216002B0BDE81040D1
:10B17800FCF768B8C82A0020E01705001818050071
:10B18800EA2A05005C2B0500D32A050008B5084803
:10B1980009F093F950B1002240F6CD410548FCF77B
:10B1A800B9FA18B1BDE80840FCF74CB808BD00BFB3
:10B1B8006DAB0200E84900202A4B1B7873B50246A4
:10B1C800002B4CD00E2848D00F2835D10125264C0D
:10B1D8002378002B43D1012323700DF00BF9294666
:10B1E8006060032221480CF0D5FC45420646002D3C
:10B1F80035D01F4B5B889BB12846FDF757FB1D4C8C
:10B208001D4B1E49E41AE4084FF46E73240401939D
:10B218001B4B00932A46034644F00100FBF708FD48
:10B22800FBF754FB0028FBD1C6F59C40203002B048
:10B23800BDE87040FCF706B80D4B5B88022B0ED9B1
:10B248000D480C4B0F491B1ADB081B0443F0030085
:10B2580002B0BDE87040FBF7CBBC0025B7E702B0F1
:10B2680070BD00BF084A0020C0490020F5AC0200AC
:10B27800C82A002018180500E0170500D32A050081
:10B28800EA2A0500D329050008B548B103280CD1DE
:10B298000220FFF7D7FB40B1BDE80840FBF7D2BF5B
:10B2A8000321024800F04FFFF5E708BD644700207E
:10B2B8002DE9F0410778002F40F0B8805C4B1B78EF
:10B2C800002B00F0B3800469868A5A4802F00BFC10
:10B2D80021460246574802F035FB014630B90123A2
:10B2E8001A465548BDE8F04109F07AB8534802F0CB
:10B2F800FAFB21460246514802F024FB034610B9E6
:10B3080001220146EDE74E4802F0EDFB21460246D8
:10B318004B4802F017FB20B94A48BDE8F04109F054
:10B32800CCB8494802F0DFFB21460246464802F005
:10B3380009FB014618B901231A464448D2E7444894
:10B3480002F0D1FB21460246414802F0FBFA0346CF
:10B3580010B901220146F0E7032E3E4D0BD83946BD
:10B368000A22204602F00EFB074670B9012E02D1D0
:10B378002378302B29D06B88022B16D93648374BC7
:10B388003749C01AC00800040BE0B0F57A7F1CD317
:10B398006B88022B09D93048304B3249C01AC00893
:10B3A800000440F00300FBF71FFC6B88022B3DD91B
:10B3B80029482A4BC01AC00800043246214640F0EA
:10B3C8000300BDE8F041FBF741BC2748FCF7E6F96C
:10B3D80008B1FBF737FF6B88022B0AD91E481F4BB1
:10B3E8002249C01AC00800043A4640F00300FBF79F
:10B3F800FFFB4FF0FA744FF4FA7000214FF47A72A1
:10B408000023C4FB070102F097F80428014604D87A
:10B418000020BDE8F041FFF7B9BE00221248FCF752
:10B4280079F918B1BDE8F041FBF70CBFBDE8F08130
:10B43800084A00208A1B050075AC0200112C050083
:10B44800663C05006DAB0200D31B0500E5AB0200AE
:10B45800F2290500C82A002018180500E017050081
:10B46800132C0500372C0500E8490020572C05004F
:10B4780010B5044612F02AFE20B12046BDE810405F
:10B48800FFF7B0BD022003F01FFA012801D0FFF733
:10B498003FFE4CB1204640F2D322002109F032FA97
:10B4A800BDE8104009F00EB810BD00000A4601467C
:10B4B8000148FBF7D4BE00BFFECAFECA08B508495A
:10B4C800084801F09BFA08B1FBF7BCFEF7210548D4
:10B4D80001F0A9FA18B1BDE80840FBF7B3BE08BDF2
:10B4E8007DAF0200C8490020F7B50C461746002179
:10B4F80040F2DE22064609F005FA6946054620466E
:10B5080008F0CAFC1621284609F038F90822044632
:10B518001D4902F08CFA0822694604F10D0002F078
:10B5280086FA012323720623638103232373677535
:10B53800304602F0F9FCB5F904206AB1134B5B8878
:10B54800022B09D91248134B1349C01AC00800042A
:10B5580040F00300FBF74CFB08236381304602F000
:10B56800E3FCB5F904206AB1084B5B88022B09D9C2
:10B578000748084B0949C01AC008000440F00300F6
:10B58800FBF736FB03B0F0BDDC490020C82A0020D9
:10B5980018180500E01705005A2A0500932A050027
:10B5A80070B54FF441720021054609F0ABF9064623
:10B5B8000146002009F0C9F913210446304609F074
:10B5C800DDF863780646C3B92379B3B1114B5B88BC
:10B5D800022B0CD9104B1148B6F801201049C01A9B
:10B5E800C0080004637940F00300FBF70BFB6279A5
:10B5F800B6F801102846FFF777FF4DB128464FF4FB
:10B608004672002109F07EF9BDE8704008F05ABF83
:10B6180070BD00BFC82A0020E017050018180500F3
:10B62800F4290500F0B585B004A9002541F8045DAA
:10B63800044613F023F840F24D42064629462046B8
:10B6480009F060F9062EB0F9042017D8052E8B4DA5
:10B658002CD2032E00F0D280884B5B88022B40F25C
:10B66800C280874B87488849C01AC008000413461F
:10B6780040F003003246FBF7C5FAB4E0132E00F0A1
:10B68800E980142EE8D1002A00F0AD807B4B5B885E
:10B69800012B40F2A8807A4B7A487C49C01AC0082E
:10B6A800000440F00200FBF79FFA9CE06B88002A38
:10B6B80064D1022B09D97348714B7549C01AC00867
:10B6C800000440F00300FBF78FFA0220FDF722FC8C
:10B6D800704B1B78002B40F08680822221466E48F2
:10B6E8000CF058FA46420746F6B16B889BB13046D3
:10B6F800FDF7DCF8634C624B6849E41AE40840F251
:10B708005D4324040193664B00933246034644F09C
:10B718000100FBF78DFAFBF7D9F80028FBD1C7F534
:10B728009C402030FBF78EFD40F2451200215D4819
:10B738000CF030FA46420746F6B16B889BB13046AA
:10B74800FDF7B4F84F4C4E4B5449E41AE40840F264
:10B758005F4324040193524B00933246034644F05E
:10B768000100FBF765FAFBF7B1F80028FBD1C7F534
:10B778009C402030FBF766FD05B0F0BD4BB1414859
:10B788003F4B4949C01AC008000440F00100FBF7CC
:10B798002FFA0220FDF7D2FB4122002143480CF08A
:10B7A800F9F946420746F6B16B889BB13046FDF77A
:10B7B8007DF8344D324B3949ED1AED084FF48D635D
:10B7C8002D040193364B00933246034645F00100A1
:10B7D800FBF72EFAFBF77AF80028FBD1C7F59C4057
:10B7E8002030FBF72FFD002CC6D04FF492620021C9
:10B7F800204609F087F808F065FEBDE7E2B90220A7
:10B80800FDF79CFB6B88039E022B0AD91D481C4B35
:10B8180032792749C01AC008000440F00300FBF73A
:10B82800E7F93379002BDED1022003F04DF8012827
:10B83800D9D0FFF76DFCD6E76B88002BD3D0104B1F
:10B8480010481C49C01AC008000440F00100FBF76A
:10B85800CFF9C8E7094B5B88022B0BD9084B09487D
:10B868001549C01AC008039B00045A6840F0030039
:10B87800FBF7BEF90CF04EFDB5E700BFC82A002063
:10B88800E0170500181805002B2D0500FF2C0500F2
:10B898006A2C0500084A00201DAB0200D32A0500C7
:10B8A800EA2A050099B00200862C050079B4020046
:10B8B800A92C0500C62C0500EA2C050070B54FF42C
:10B8C8000041AEB00020FAF74DFF08B1FBF7BAFC13
:10B8D800FAF764FEFBF7DCFE08B1FBF7B3FC834A1A
:10B8E80083480021FBF704FF08B1FBF7ABFC814953
:10B8F8000320FFF7B3F808B1FBF7A4FCFDF732FB10
:10B9080001F0E2FB08B1FBF79DFC2EAC002344F8E4
:10B91800AC3D0120214601F0A3FC08B1FBF792FCE5
:10B92800204601F083FD08B1FBF78CFC2EAD1123F6
:10B9380005F8B03D704802F0D6F86F4982B2284643
:10B94800FFF7DEF808B1FBF77DFC0021082220464E
:10B9580002F096F869494FF0C8732046CDE9031301
:10B96800FFF7CCF808B1FBF76DFCFFF7A7FD002146
:10B978000422204602F084F8614B62480393214672
:10B9880001F0D0FA08B1FBF75DFCAC22002120469B
:10B9980002F076F802238DF80C3000238DF80E3073
:10B9A8000523594A8DF80F300123ADF85830179206
:10B9B8008DF888304FF4A07244F25063CDE9252306
:10B9C8002146524B52482C9300F046FB08B1FBF736
:10B9D80039FC01214E4800F03CFB1C220021204686
:10B9E80002F04EF800254FF42033CDE903534FF40D
:10B9F8007023059303238DF81830464B089320468F
:10BA0800454BADF81A508DF81C50099300F0E4FD31
:10BA180008B1FBF717FC414B414C1D70414B1D8091
:10BA2800414B1D7009F0CAF809F0CAF83F48FCF705
:10BA3800B1FF3E480CF060FD4FF480300CF082FD01
:10BA480000200CF061FD06200BF082FDC3200BF0F6
:10BA580085FD0220FEF7F0FF80F00100C0B20CF077
:10BA68003FFD08220021324802F00AF8314802F06E
:10BA780057F96288022A09D92F48304B3049C01A31
:10BA8800C008000440F00300FBF7AEF8032120488B
:10BA980000F059FB08B1FBF7D5FB0CF056FD454209
:10BAA8000646F5B163889BB12846FCF7FFFE224C99
:10BAB800224B2449E41AE40840F2B94324040193D0
:10BAC800214B00932A46034644F00100FBF7B0F8E7
